{
  "contractName": "RideShare",
  "abi": [
    {
      "constant": true,
      "inputs": [],
      "name": "name",
      "outputs": [
        {
          "name": "",
          "type": "string"
        }
      ],
      "payable": false,
      "stateMutability": "view",
      "type": "function"
    },
    {
      "constant": true,
      "inputs": [
        {
          "name": "",
          "type": "uint256"
        }
      ],
      "name": "rides",
      "outputs": [
        {
          "name": "id",
          "type": "uint256"
        },
        {
          "name": "from",
          "type": "string"
        },
        {
          "name": "destination",
          "type": "string"
        },
        {
          "name": "fareAmount",
          "type": "uint256"
        },
        {
          "name": "kms",
          "type": "string"
        },
        {
          "name": "driver",
          "type": "address"
        }
      ],
      "payable": false,
      "stateMutability": "view",
      "type": "function"
    },
    {
      "constant": true,
      "inputs": [],
      "name": "rideCount",
      "outputs": [
        {
          "name": "",
          "type": "uint256"
        }
      ],
      "payable": false,
      "stateMutability": "view",
      "type": "function"
    },
    {
      "inputs": [],
      "payable": false,
      "stateMutability": "nonpayable",
      "type": "constructor"
    },
    {
      "anonymous": false,
      "inputs": [
        {
          "indexed": false,
          "name": "id",
          "type": "uint256"
        },
        {
          "indexed": false,
          "name": "from",
          "type": "string"
        },
        {
          "indexed": false,
          "name": "destination",
          "type": "string"
        },
        {
          "indexed": false,
          "name": "fareAmount",
          "type": "uint256"
        },
        {
          "indexed": false,
          "name": "kms",
          "type": "string"
        },
        {
          "indexed": false,
          "name": "driver",
          "type": "address"
        }
      ],
      "name": "RideCreated",
      "type": "event"
    },
    {
      "constant": false,
      "inputs": [
        {
          "name": "_from",
          "type": "string"
        },
        {
          "name": "_destination",
          "type": "string"
        },
        {
          "name": "_kms",
          "type": "string"
        }
      ],
      "name": "createRide",
      "outputs": [],
      "payable": false,
      "stateMutability": "nonpayable",
      "type": "function"
    }
  ],
  "bytecode": "0x6080604052600060015534801561001557600080fd5b506040805190810160405280600981526020017f526964655368617265000000000000000000000000000000000000000000000081525060009080519060200190610061929190610067565b5061010c565b828054600181600116156101000203166002900490600052602060002090601f016020900481019282601f106100a857805160ff19168380011785556100d6565b828001600101855582156100d6579182015b828111156100d55782518255916020019190600101906100ba565b5b5090506100e391906100e7565b5090565b61010991905b808211156101055760008160009055506001016100ed565b5090565b90565b610bdc8061011b6000396000f3fe608060405260043610610062576000357c0100000000000000000000000000000000000000000000000000000000900463ffffffff16806306fdde03146100675780635205f112146100f7578063ad200756146102c4578063b47c1883146104ba575b600080fd5b34801561007357600080fd5b5061007c6104e5565b6040518080602001828103825283818151815260200191508051906020019080838360005b838110156100bc5780820151818401526020810190506100a1565b50505050905090810190601f1680156100e95780820380516001836020036101000a031916815260200191505b509250505060405180910390f35b34801561010357600080fd5b506101306004803603602081101561011a57600080fd5b8101908080359060200190929190505050610583565b604051808781526020018060200180602001868152602001806020018573ffffffffffffffffffffffffffffffffffffffff1673ffffffffffffffffffffffffffffffffffffffff168152602001848103845289818151815260200191508051906020019080838360005b838110156101b657808201518184015260208101905061019b565b50505050905090810190601f1680156101e35780820380516001836020036101000a031916815260200191505b50848103835288818151815260200191508051906020019080838360005b8381101561021c578082015181840152602081019050610201565b50505050905090810190601f1680156102495780820380516001836020036101000a031916815260200191505b50848103825286818151815260200191508051906020019080838360005b83811015610282578082015181840152602081019050610267565b50505050905090810190601f1680156102af5780820380516001836020036101000a031916815260200191505b50995050505050505050505060405180910390f35b3480156102d057600080fd5b506104b8600480360360608110156102e757600080fd5b810190808035906020019064010000000081111561030457600080fd5b82018360208201111561031657600080fd5b8035906020019184600183028401116401000000008311171561033857600080fd5b91908080601f016020809104026020016040519081016040528093929190818152602001838380828437600081840152601f19601f8201169050808301925050505050505091929192908035906020019064010000000081111561039b57600080fd5b8201836020820111156103ad57600080fd5b803590602001918460018302840111640100000000831117156103cf57600080fd5b91908080601f016020809104026020016040519081016040528093929190818152602001838380828437600081840152601f19601f8201169050808301925050505050505091929192908035906020019064010000000081111561043257600080fd5b82018360208201111561044457600080fd5b8035906020019184600183028401116401000000008311171561046657600080fd5b91908080601f016020809104026020016040519081016040528093929190818152602001838380828437600081840152601f19601f8201169050808301925050505050505091929192905050506107a7565b005b3480156104c657600080fd5b506104cf610b05565b6040518082815260200191505060405180910390f35b60008054600181600116156101000203166002900480601f01602080910402602001604051908101604052809291908181526020018280546001816001161561010002031660029004801561057b5780601f106105505761010080835404028352916020019161057b565b820191906000526020600020905b81548152906001019060200180831161055e57829003601f168201915b505050505081565b6002602052806000526040600020600091509050806000015490806001018054600181600116156101000203166002900480601f0160208091040260200160405190810160405280929190818152602001828054600181600116156101000203166002900480156106355780601f1061060a57610100808354040283529160200191610635565b820191906000526020600020905b81548152906001019060200180831161061857829003601f168201915b505050505090806002018054600181600116156101000203166002900480601f0160208091040260200160405190810160405280929190818152602001828054600181600116156101000203166002900480156106d35780601f106106a8576101008083540402835291602001916106d3565b820191906000526020600020905b8154815290600101906020018083116106b657829003601f168201915b505050505090806003015490806004018054600181600116156101000203166002900480601f0160208091040260200160405190810160405280929190818152602001828054600181600116156101000203166002900480156107775780601f1061074c57610100808354040283529160200191610777565b820191906000526020600020905b81548152906001019060200180831161075a57829003601f168201915b5050505050908060050160009054906101000a900473ffffffffffffffffffffffffffffffffffffffff16905086565b60008351111515610820576040517f08c379a00000000000000000000000000000000000000000000000000000000081526004018080602001828103825260078152602001807f726575697265640000000000000000000000000000000000000000000000000081525060200191505060405180910390fd5b60016000815480929190600101919050555060c0604051908101604052806001548152602001848152602001838152602001600081526020018281526020013373ffffffffffffffffffffffffffffffffffffffff168152506002600060015481526020019081526020016000206000820151816000015560208201518160010190805190602001906108b4929190610b0b565b5060408201518160020190805190602001906108d1929190610b0b565b506060820151816003015560808201518160040190805190602001906108f8929190610b0b565b5060a08201518160050160006101000a81548173ffffffffffffffffffffffffffffffffffffffff021916908373ffffffffffffffffffffffffffffffffffffffff1602179055509050507f4f631a56bd351308164b124e52445a4f8e89d5f98e3b6972dca18faf5b3a7233600154848460008533604051808781526020018060200180602001868152602001806020018573ffffffffffffffffffffffffffffffffffffffff1673ffffffffffffffffffffffffffffffffffffffff168152602001848103845289818151815260200191508051906020019080838360005b838110156109f35780820151818401526020810190506109d8565b50505050905090810190601f168015610a205780820380516001836020036101000a031916815260200191505b50848103835288818151815260200191508051906020019080838360005b83811015610a59578082015181840152602081019050610a3e565b50505050905090810190601f168015610a865780820380516001836020036101000a031916815260200191505b50848103825286818151815260200191508051906020019080838360005b83811015610abf578082015181840152602081019050610aa4565b50505050905090810190601f168015610aec5780820380516001836020036101000a031916815260200191505b50995050505050505050505060405180910390a1505050565b60015481565b828054600181600116156101000203166002900490600052602060002090601f016020900481019282601f10610b4c57805160ff1916838001178555610b7a565b82800160010185558215610b7a579182015b82811115610b79578251825591602001919060010190610b5e565b5b509050610b879190610b8b565b5090565b610bad91905b80821115610ba9576000816000905550600101610b91565b5090565b9056fea165627a7a72305820d4bdfce422e5d818334130affbc5f55eb941c611d9bb10bc5045292f6654bdb70029",
  "source": "pragma solidity >=0.4.21 <0.7.0;\n\ncontract RideShare{\n    string public name;\n    uint public rideCount = 0;\n    mapping(uint => Ride) public rides;\n    struct Ride{\n        uint id;\n        string from;\n        string destination;\n        uint fareAmount;\n        string kms;\n        address payable driver;\n    }\n    event RideCreated(\n        uint id,\n        string from,\n        string destination,\n        uint fareAmount,\n        string kms,\n        address payable  driver\n    );\n    constructor() public{\n        name = \"RideShare\";\n    }\n    function createRide(string memory  _from, string memory _destination,string memory _kms) public{\n        require(bytes(_from).length > 0,\"reuired\");\n        rideCount ++;\n        rides[rideCount] = Ride(rideCount,_from,_destination,0,_kms,msg.sender);\n        //trigger event\n        emit RideCreated(rideCount,_from,_destination,0,_kms,msg.sender);\n    }\n    // function payRide(uint _id) public payable {\n    //     Ride memory _ride = rides[_id];\n    //     address payable _driver = _ride.driver;\n    //     address(_driver).transfer(msg.value);\n    //     rides[_id] = _ride;\n    //     emit RideCreated(msg.sender);\n    // }\n}",
  "sourcePath": "/home/manulangat/Desktop/d/proj/taxi/frontend/src/contracts/RideShare.sol",
  "compiler": {
    "name": "solc",
    "version": "0.5.0+commit.1d4f565a.Emscripten.clang"
  },
  "schemaVersion": "3.0.2",
  "updatedAt": "2020-04-29T19:48:03.774Z",
  "devdoc": {
    "methods": {}
  },
  "userdoc": {
    "methods": {}
  }
}